:020000040800F2
:10000000FCFF002055240000092300000923000004
:100010000923000009230000092300000923000030
:100020000923000009230000092300000923000020
:100030000923000009230000092300000923000010
:100040000923000009230000092300000923000000
:1000500009230000092300000923000009230000F0
:1000600009230000092300000923000009230000E0
:1000700009230000092300000923000009230000D0
:1000800009230000092300000923000009230000C0
:1000900009230000092300000923000009230000B0
:1000A00009230000092300000923000009230000A0
:1000B0000923000009230000092300000923000090
:1000C0000923000009230000092300000923000080
:1000D0000923000009230000092300000923000070
:1000E0000923000009230000092300000923000060
:1000F0000923000009230000092300000923000050
:10010000092300000923000009230000092300003F
:10011000092300000923000009230000092300002F
:10012000092300000923000009230000092300001F
:10013000092300000923000009230000092300000F
:1001400009230000092300000923000009230000FF
:1001500081B000F218010A68C2F3400181F0010188
:10016000C9B2C8B201B0704783B0CDF800E000F06A
:10017000FF031A09104603F00F02134614E0194A50
:1001800002921FE0184A02921CE0184A029219E0FB
:10019000174A029216E0174A029213E0164A029298
:1001A00010E0164A02920DE00028E8D00128E9D0BC
:1001B0000228EAD00328EBD00428ECD00528EDD0A3
:1001C0000628EED0012212B29A40ADF8042002981F
:1001D0000A46BDF8041000F093FDDDF800E003B01E
:1001E000704700BF00080140000C014000100140B2
:1001F0000014014000180140001C01400020014093
:1002000001480068704700BF0401002081B000F27F
:1002100014010A6800F218010968090442EA0101A0
:10022000084601B07047FFFF01490860704700BFF2
:10023000A081224201490860704700BFA481224288
:1002400001490860704700BF988121420149086058
:10025000704700BF9401214201490860704700BF08
:100260009C81214201490860704700BFA881224259
:1002700001490860704700BFB4812242014908600B
:10028000704700BF8801224201490860704700BFE3
:100290009001214201490860704700BFA801224235
:1002A00001490860704700BF800121420149086090
:1002B000704700BFB001224201490860704700BF8B
:1002C000AC01224201490860704700BF9881214279
:1002D00001490860704700BF9481224201490860CB
:1002E000704700BF9881224201490860704700BFF3
:1002F0009C81214282B0CDF800E0CFB20146984601
:10030000029B4FF000064FF00005C44CA14207D1FC
:10031000C34CD4F80090C34C2568C34C25600BE057
:10032000C24CA14207D1C24C2068C24C2568BE4CC9
:100330002560814600E0A946BF4CC4F80090F4E176
:1003400001F210057C00A4B244F00104A4B22C60B8
:10035000019616464F46019A01F214042568C5F32A
:10036000400464B9B44C246844B127B90320AE4CAE
:100370002468A047E2E1781E0746FFE7ECE7002586
:100380000C6865F38A240C6001F21404206800BF35
:1003900001F218042468240440EA04042046012BD6
:1003A00005D101250C6865F349240C6004E00125A2
:1003B0000C6865F308240C609F4C256891469846AC
:1003C00037460E469D49304600F0C2F968B99A4C4E
:1003D00024684CB125B90320934C2468A047ADE1B3
:1003E0006C1E20460546FFE7ECE707EB090506F221
:1003F000100424682C70B8F1010F13D18E4C2168C1
:1004000030460568C5F340245CB98B4C24683CB188
:1004100021B90320844C2468A0478FE1491EFFE7DF
:10042000EFE712E0844C216830460568C5F30024EC
:100430005CB9814C24683CB121B903207A4C246812
:10044000A0477BE1491EFFE7EFE777E101250C6854
:1004500065F38A240C6001250C6865F3CB240C60DD
:1004600001F210057C00A4B244F00104A4B22C6097
:100470004F4601F214042568C5F3400464B96E4C7C
:10048000246844B127B90320674C2468A04755E18C
:10049000781E0746FFE7ECE701F21404206800BF6E
:1004A00001F2180424682404204300250C6865F335
:1004B0008A240C60604C276801F214042568C5F397
:1004C000800464B95C4C246844B127B90320564CBD
:1004D0002468A04732E1781E0746FFE7ECE7012BCE
:1004E00005D101250C6865F349240C6004E0012561
:1004F0000C6865F308240C60951901F21004246857
:100500002C70741C151901F2100424682C70012B36
:1005100014D1494C22680D68C5F3402464B9464C97
:10052000246844B122B903203F4C2468A04705E168
:10053000501E0246FFE7EEE7084613E03E4C2268F5
:100540000D68C5F3002464B93B4C246844B122B95A
:100550000320354C2468A047F0E0501E0246FFE718
:10056000EEE708460025046865F3CB240460E5E067
:1005700001250C6865F38A240C6001F210057C00EB
:10058000A4B244F00104A4B22C604646C846894691
:1005900017461D462A49484600F0DAF878B9264C35
:1005A00024685CB1B8F1000F04D103201E4C24680C
:1005B000A047C3E0A8F101008046FFE7EAE7002179
:1005C000A8464A46B1463B46A9F10304A14222D2BD
:1005D000194C25688A4617461E461849384600F0C9
:1005E000B7F860B9144C246844B125B903200E4C07
:1005F0002468A047A2E0681E0546FFE7EDE706EB8A
:100600000A0507F2100424682C700AF1010421463F
:1006100033463A46D8E7084C00F014B8005400407E
:10062000D00000200C0100200801002000580040EC
:10063000D400002010010020D8000020400003005A
:1006400002000300276801930B46164642460199B3
:1006500006F214042568C5F3800464B9394C246893
:1006600044B127B90320384C2468A04766E0781EBF
:100670000746FFE7ECE70025346865F38A24346019
:10068000CD1806F2100424682C70581C2D4C2368D9
:100690001746024606F214042568C5F3800464B9BF
:1006A000284C246844B123B90320274C2468A04770
:1006B00044E0581E0346FFE7ECE7012F07D1012570
:1006C000346865F3492434601046324621E0012540
:1006D000346865F3082434601A4CD4F80080174657
:1006E0000D461A49304600F033F878B9154C2468A5
:1006F0005CB1B8F1000F04D10320134C2468A0476B
:100700001CE0A8F101008046FFE7EAE729463246EF
:1007100038460D1802F2100424682C70441C0D1980
:1007200002F2100424682C7008E0B8F1010F3FF4C5
:1007300007AEB8F1020F3FF489AE19E7DDF800E02B
:1007400002B07047D800002008010020010003001B
:1007500081B0CDF800E00B46FFF758FD00EA030238
:100760009A4240F2000200D10122D0B2DDF800E04E
:1007700001B0704781B0CDF800E04FF00002194998
:10078000884207D118490B6818490A6818490A6055
:100790001C460BE01749884207D117490B681749D7
:1007A0000A6813490A601C4600E0144614490C60AC
:1007B00003461846FFF7CCFC70B91149096851B1DE
:1007C0002CB905200A4C2468A047002005E0611ED2
:1007D00008460446FFE7ECE70120DDF800E001B041
:1007E000704700BF00540040D00000200C010020E2
:1007F0000801002000580040D40000201001002013
:10080000D800002001490860704700BFA8012242BB
:1008100001490860704700BFB88122420149086061
:10082000704700BF8C01224201490860704700BF39
:10083000AC01224201490860704700BFB0812242EA
:1008400001490860704700BFB08122420149086039
:10085000704700BFB001224282B0CDF800E00346ED
:1008600019460191FFF7CCFC40F2E83100FB01F2A0
:1008700001990A601F490978C1F30311C8B21E49E2
:1008800009180878C0B21A1D1968C14011601949C9
:100890000988C1F3022188B2174909180878C0B243
:1008A00003F20802191D0968C14011601149098845
:1008B000C1F3C22188B2104909180878C0B203F206
:1008C0000C02191D0968C14011600A490988C1F369
:1008D000813188B2094909180978C8B203F21002B7
:1008E00003F20C010968B1FBF0F11160DDF800E0E2
:1008F00002B0704704100240542700007C2700001B
:1009000081B0CDF800E0012252B23E490A6000F207
:1009100068010B686FF0006103EA0102144603F0FE
:100920000061C90E0B4602F00041B1F1004F02D147
:1009300035490A6801E035490A6804F47021090C58
:100940000E464FF6FF7104EA01010D4604F4401112
:10095000B1F5401F0DD16FF0706102EA01010E4642
:100960002A490A686FF070610A4028490A603246D5
:1009700016E004F48011B1F5801F09D14FF0030196
:10098000B140C94302EA010141F070610A4607E043
:10099000610D090105FA01F1C9430A4042F0706294
:1009A0002BB1610D090105FA01F10A43FFE704F0DB
:1009B0000041B1F1004F02D113490A6001E013492F
:1009C0000A6040F2000A81464FEA8A0109EB010100
:1009D0000968B1F1FF3F10D009F134014FEA8A03F1
:1009E000C91809680A4609EB030109680846114657
:1009F000FFF7BAFB0AF1010AE6E7DDF800E001B013
:100A0000704700BF000342421C0001400400014047
:100A100081B0194900EA0101084600220EE00420D5
:100A200022E0082020E010201EE020201CE04020D2
:100A30001AE0802018E040F2001015E00F498842CB
:100A4000EDD00F498842ECD00E498842EBD00E49D8
:100A50008842EAD00D498842E9D00D498842E8D061
:100A60000C498842E7D010460B49096841EA000268
:100A700009490A6001B0704700FCFFFF000801400F
:100A8000000C01400010014000140140001801401A
:100A9000001C0140002001401810024081B0ADF858
:100AA00000100146BDF800000B68C3F3C01202B984
:100AB000FAE70A1D106001B07047FFFF89B0CDF85A
:100AC00000E0834698B28C46BDF824100A9E04AC20
:100AD000ADF80410ADF808002046FFF7BDFEBDF8E4
:100AE0000800BDF80410644CA34512D101256DB275
:100AF000624C2560624D634C2560634D634C2560FC
:100B0000634D644C2560644D644C2560079C0394E0
:100B100056E0634CA34512D101256DB2614C2560AE
:100B2000614D584C2560614D584C2560604D594CC5
:100B30002560604D594C2560069C039440E05E4C56
:100B4000A34512D101256DB25C4C25605C4D4D4C26
:100B500025605C4D4D4C25605B4D4E4C25605B4DDA
:100B60004E4C2560069C03942AE0594CA34512D1B3
:100B700001256DB2574C2560574D424C2560574DAD
:100B8000424C2560564D434C2560564D434C2560E4
:100B9000069C039414E0544CA34511D101256DB279
:100BA000524C2560524D374C2560524D374C2560D4
:100BB000514D384C2560514D384C2560069C0394AE
:100BC000ADF80410ADF808003046FFF799FEBDF807
:100BD0000800BDF804100BF1100500242C600BF187
:100BE00010052C680C432C600BF10C0500242C60C4
:100BF00018B140F4806080B2FFE70BF10C052C685F
:100C000004432C600BF10C060125346865F34D3468
:100C100034600BF10C060125346865F3C3043460BD
:100C20000BF10C060125346865F3820434600BF186
:100C3000140500242C60039D192465434FEA8C049D
:100C4000B5FBF4F76424B7FBF4F4260135096424FA
:100C50006C433C1B240104F232056424B5FBF4F41C
:100C600004F00F0446EA04040BF10805A4B22C605A
:100C7000DDF800E009B07047003801403803424217
:100C80007D14000020010020B51500002401002083
:100C9000CD13000028010020B51300002C01002016
:100CA00000440040C403424261140000E513000008
:100CB00015140000FD13000000480040C803424224
:100CC000451400009D1300006D1300008513000003
:100CD000004C0040CC034242D91400002D14000007
:100CE000491500003115000000500040D003424279
:100CF000BD140000191500009D15000085150000A9
:100D000081B0CDF800E08CB21546774B00EA0303C2
:100D10001E461846FFF77CFEB4F1FF0F0CD1734B53
:100D20009D4203D14FF033333360D9E0422D03D1DC
:100D30004FF044333360D3E04FF6FF739C4214D13D
:100D40006A4B9D4207D14FF033333360341D4FF06F
:100D500033332360C4E0422D07D14FF04433336076
:100D6000341D4FF044332360BAE00021002005F029
:100D700001030BB100211DE005F0020333B105F4BE
:100D8000C0730BB1082100E0042113E005F0040357
:100D900033B105F020030BB1042100E0002109E08C
:100DA00005F0080333B105F020030BB10C2100E07E
:100DB0000821FFE74E4B05EA03030BB1032009E0CE
:100DC00005F400730BB1022004E005F480630BB15D
:100DD0000120FFE705F00C030BB10143FFE704F02E
:100DE000FF039BB2002B3BD0376800201FFA84F82A
:100DF00032462E4608282CD24FF0010303FA00F4A5
:100E000008EA0403A34222D185004FF00F03AB4050
:100E1000DB4307EA030401FA05F344EA03031D4632
:100E200006F48173B3F5817F05D102F214044FF00B
:100E300001038340236006F08203822B05D102F276
:100E400010044FF00103834023602F46FFE7401C4E
:100E5000D0E717601FFA88F00F463146164602E0C9
:100E60000F462946A0B2B0F1FF0F39D9331DD3F890
:100E700000800022082A30D202F208044FF0010359
:100E800003FA04F400EA0403A34224D195004FF0CE
:100E90000F03AB40DB4308EA030807FA05F348EA0F
:100EA000030801F48173B3F5817F07D106F21405BD
:100EB00002F208044FF00103A3402B6001F082030B
:100EC000822B07D106F2100502F208044FF001034D
:100ED000A3402B60FFE7521CCCE7331DC3F8008012
:100EE000DDF800E001B0704700FCFFFF14000800CF
:100EF0000008080082B0CDF800E0029E4FF0000527
:100F0000564CA04206D1564C2768564C2568564C84
:100F100025600AE0554CA04206D1554C2768554C37
:100F20002568514C256000E02F46534C276000F2A5
:100F300010054C00A4B22C60B946074690463546D1
:100F40001E464E493846FFF703FC88B94A4C2468D0
:100F50006CB1B9F1000F06D10420434C2468A047BE
:100F60004FF6FF7076E0A9F101008146FFE7E8E760
:100F70000020019729463746019E7C1EA04226D2BA
:100F800006F2100508EB000424782C603A4CD4F8E3
:100F9000009082460D463A493046FFF7D9FB88B9A2
:100FA000354C24686CB1B9F1000F06D104202E4CE9
:100FB0002468A0474FF6FF704CE0A9F1010081467C
:100FC000FFE7E8E70AF1010420462946D5E706F2E3
:100FD000100508EB000424782C60274C27680D4688
:100FE00028493046FFF7B4FB70B9234C246854B14C
:100FF00037B904201C4C2468A0474FF6FF7029E045
:10100000781E0746FFE7EBE7012D05D1012534687F
:1010100065F3492434601CE00125346865F3082435
:101020003460154C2768354617492846FFF790FB72
:1010300078B9114C24685CB137B904200A4C246893
:10104000A0474FF6FF7005E07C1E20460746FFE7ED
:10105000EAE70020DDF800E002B0704700540040ED
:10106000D00000200C0100200801002000580040A2
:10107000D400002010010020D800002082000700CA
:1010800080000700840007000100030081B00168B0
:10109000C1F3801001B0704781B00268C2F3401103
:1010A00001B9FAE7011D096888B201B07047FFFF76
:1010B00081B0CDF800E008B413460A46C1B2044836
:1010C000FFF718F901B0DDF800E001B0704700BF8C
:1010D0000054004081B0CDF800E008B413460A4641
:1010E000C1B20448FFF706F901B0DDF800E001B035
:1010F000704700BF0058004088B0CDF800E00E46B1
:10110000554B98420DD1012464B2544B1C60544C91
:10111000544B1C60544C554B1C60554C554B1C603B
:101120000FE0554B98420CD1012464B2534B1C6024
:10113000534C4C4B1C60534C4C4B1C60524C4D4B15
:101140001C60019602901046FFF7DAFB0298019EA0
:10115000031D1B689CB26FF03F0304EA03039DB2BA
:1011600003AB01901846FFF777FB0198059F059C9C
:10117000464BB4FBF3F399B29BB245EA0304A4B225
:10118000031D1C600024036864F300030360002255
:101190003F4B9E4212D87300B7FBF3F4A4B2042C69
:1011A00002D204231C46FFE742EA04039AB200F28B
:1011B00020044B1C9BB2236091B23FE0032306FB4B
:1011C00003F4B7FBF4F31FFA83F8192306FB03F5C6
:1011D000B7FBF5F31FFA83F908FB04F409FB05F3E9
:1011E0003C1BFB1A9C4205D203237343B7FBF3F469
:1011F000A4B206E019237343B7FBF3F4A4B244F49A
:10120000804440F6FF7304EA030313B944F0010479
:10121000FFE744F400439BB21A4392B200F2200568
:1012200040F22C1301FB03F4A4B240F2E833B4FB08
:10123000F3F39BB25B1C9BB22B6091B200F21C03D8
:101240001960002303600124036864F30003036052
:10125000DDF800E008B0704700540040D40342427B
:101260009516000014010020B110000018010020A4
:10127000611500001C01002000580040D8034242C4
:10128000AD160000D5100000F514000040420F001C
:10129000A086010083B0CDF800E003464FF00000C7
:1012A00026498B4206D126490C6826490A682649F8
:1012B0000A600BE025498B4207D12549086825497A
:1012C0000A6821490A60044600E0044622490C608D
:1012D000019402931846FFF74DFA029B019C10B946
:1012E0004FF6FF7025E00122196862F308211960AA
:1012F00003F214010A68C2F3402111B14FF6FF70E6
:1013000017E025461C4615492046FFF721FA78B913
:101310001149096859B135B906200B4C2468A0471A
:101320004FF6FF7005E0691E08460546FFE7EAE74D
:101330000020DDF800E003B0704700BF005400401B
:10134000D00000200C0100200801002000580040BF
:10135000D400002010010020D8000020010003006C
:1013600081B00168C1F3401001B0704781B0CDF881
:1013700000E00348FFF7F4FFDDF800E001B070473C
:101380000048004081B0CDF800E00348FFF77EFE42
:10139000DDF800E001B070470048004081B0CDF8B2
:1013A00000E00348FFF778FEDDF800E001B0704789
:1013B0000048004081B0CDF800E00348FFF766FE2A
:1013C000DDF800E001B070470038014081B0CDF891
:1013D00000E00348FFF7C4FFDDF800E001B070470C
:1013E0000038014081B0CDF800E00348FFF754FE1B
:1013F000DDF800E001B070470044004081B0CDF856
:1014000000E00348FFF742FEDDF800E001B070475E
:101410000044004081B0CDF800E00348FFF7A0FF92
:10142000DDF800E001B070470044004081B0CDF825
:1014300000E00348FFF730FEDDF800E001B0704740
:10144000004C004081B0CDF800E081B20348FFF7C6
:1014500025FBDDF800E001B0704700BF0048004008
:1014600081B0CDF800E081B20348FFF717FBDDF84B
:1014700000E001B0704700BF0044004081B0CDF8EB
:1014800000E081B20348FFF709FBDDF800E001B09E
:10149000704700BF0038014082B0CDF800E040F254
:1014A0000004ADF80440044C2468A047BDF90400D2
:1014B000DDF800E002B07047F400002081B0CDF804
:1014C00000E081B20348FFF7E9FADDF800E001B07F
:1014D000704700BF0050004081B0CDF800E081B2FD
:1014E0000348FFF7DBFADDF800E001B0704700BF0A
:1014F000004C004081B0CDF800E008B413460A4625
:10150000C1B20448FFF7F6FC01B0DDF800E001B01D
:10151000704700BF0058004081B0CDF800E003489C
:10152000FFF7BAFDDDF800E001B070470050004061
:1015300081B0CDF800E00348FFF7A8FDDDF800E03A
:1015400001B07047004C004081B0CDF800E0034886
:10155000FFF706FFDDF800E001B07047004C0040E7
:1015600081B0CDF800E008B413460A46C1B2044881
:10157000FFF7C0FC01B0DDF800E001B0704700BF2C
:101580000054004081B0CDF800E00348FFF77EFD35
:10159000DDF800E001B070470050004081B0CDF8A8
:1015A00000E00348FFF7DCFEDDF800E001B0704723
:1015B0000050004081B0CDF800E00348FFF76CFD1B
:1015C000DDF800E001B070470038014081B0CDF88F
:1015D00000E0019D2C4610B408B493B28AB20146D3
:1015E0000348FFF76BFA02B0DDF800E001B0704786
:1015F0000038014081B0CDF800E0044A89B2FFF71D
:101600007FFBDDF800E001B0704700BF1400080068
:1016100081B0CDF800E04FF0420289B2FFF770FBD5
:10162000DDF800E001B0704781B0CDF800E0019D29
:101630002C4610B408B493B28AB201460348FFF7AF
:101640003DFA02B0DDF800E001B07047004800400C
:1016500081B0CDF800E0019D2C4610B408B493B2DF
:101660008AB201460348FFF729FA02B0DDF800E02C
:1016700001B070470044004081B0CDF800E00A4658
:1016800001460348FFF738FDDDF800E001B0704780
:101690000054004081B0CDF800E00348FFF7FAFDA8
:1016A000DDF800E001B070470054004081B0CDF893
:1016B00000E00348FFF7EEFDDDF800E001B0704701
:1016C0000058004082B0CDF800E040F20004ADF8D0
:1016D0000440064C2468A047BDF9041041EA00000C
:1016E00000B2DDF800E002B0704700BFF800002053
:1016F00081B0CDF800E0094902B440F2000340F2A5
:10170000000240F20001FFF7A3FF01B0044A0549BF
:101710000A600020DDF800E001B070478826000074
:1017200061140000F000002082B0CDF800E040F22B
:101730000004ADF80440054C2468A047BDF90440FE
:10174000044320B2DDF800E002B07047FC00002046
:1017500081B0CDF800E00178CCB2A0B2034C24688F
:10176000A0470020DDF800E001B07047F000002045
:1017700082B0CDF800E001A90870FFF7A3FF01AA2D
:101780000C4909780023C8B211460122FFF7CCFFAB
:101790000DF10502074909780123C8B2114601225B
:1017A000FFF77AFE0DF105010978C8B2DDF800E017
:1017B00002B07047CD00002000F230011C310A68F1
:1017C00001490A60704700BF0001002081B0CDF8D8
:1017D00000E0094902B440F2000340F2000240F286
:1017E0000001FFF7F3FE01B0044A05490A6000203A
:1017F000DDF800E001B07047442500007D140000D2
:10180000F000002081B0CDF800E0094902B440F2B8
:10181000000340F2000240F20001FFF719FF01B09F
:10182000044A05490A600020DDF800E001B0704775
:101830008826000061140000F000002081B0CDF87F
:1018400000E0A9E0012905D140F220016548FFF739
:10185000DFFE04E040F220016248FFF7CBFEBBE070
:10186000012905D140F208015F48FFF7D1FE04E0ED
:1018700040F208015C48FFF7BDFEADE0012905D14B
:1018800044F200015948FFF7C3FE04E044F20001AE
:101890005648FFF7AFFE9FE0012905D140F2004115
:1018A0005148FFF7B5FE04E040F200414E48FFF713
:1018B000A1FE91E0012905D140F600014A48FFF759
:1018C000A7FE04E040F600014748FFF793FE83E0DF
:1018D000012905D141F200014348FFF799FE04E0D8
:1018E00041F200014048FFF785FE75E0012905D16E
:1018F00041F200013D48FFF78BFE04E041F2000198
:101900003A48FFF777FE67E0012905D140F600016C
:101910003648FFF77DFE04E040F600013348FFF74C
:1019200069FE59E0012905D140F240012F48FFF737
:101930006FFE04E040F240012C48FFF75BFE4BE0F5
:10194000012905D140F220012848FFF761FE04E09B
:1019500040F220012548FFF74DFE3DE0012905D169
:1019600040F240012248FFF753FE04E040F24001FC
:101970001F48FFF73FFE2FE0012905D140F280010B
:101980001B48FFF745FE04E040F280011848FFF7CE
:1019900031FE21E0012020E000283FF453AF012870
:1019A0003FF45EAF02283FF469AF03283FF474AF01
:1019B00004283FF47FAF05283FF48AAF06283FF4A0
:1019C00095AF0728A0D00828ACD00928B8D00A289D
:1019D000C4D00B28D0D0DDE70020DDF800E001B056
:1019E000704700BF00080140001001400014014092
:1019F000000C014081B0CDF800E0A9E0012905D13B
:101A000040F210016548FFF703FE04E040F21001C8
:101A10006248FFF7EFFDBBE0012905D140F2040168
:101A20005F48FFF7F5FD04E040F204015C48FFF772
:101A3000E1FDADE0012905D142F200015948FFF76F
:101A4000E7FD04E042F200015648FFF7D3FD9FE0B6
:101A5000012905D140F200415148FFF7D9FD04E0CA
:101A600040F200414E48FFF7C5FD91E0012905D144
:101A700040F600014A48FFF7CBFD04E040F60001C4
:101A80004748FFF7B7FD83E0012905D141F2000186
:101A90004348FFF7BDFD04E041F200014048FFF775
:101AA000A9FD75E0012905D140F201013B48FFF78E
:101AB000AFFD04E040F201013848FFF79BFD67E00D
:101AC000012905D140F200413648FFF7A1FD04E0AD
:101AD00040F200413348FFF78DFD59E0012905D15F
:101AE00040F200212F48FFF793FD04E040F200216F
:101AF0002C48FFF77FFD4BE0012905D140F2001192
:101B00002848FFF785FD04E040F200112548FFF763
:101B100071FD3DE0012905D140F240012248FFF767
:101B200077FD04E040F240011F48FFF763FD2FE01E
:101B3000012905D140F280011B48FFF769FD04E04F
:101B400040F280011848FFF755FD21E0012020E018
:101B500000283FF453AF01283FF45EAF02283FF462
:101B600069AF03283FF474AF04283FF47FAF052822
:101B70003FF48AAF06283FF495AF0728A0D0082885
:101B8000ACD00928B8D00A28C4D00B28D0D0DDE7C3
:101B90000020DDF800E001B0704700BF0008014000
:101BA0000010014000140140000C014081B00A46C1
:101BB00081B200208DB21146052805D20B182022D3
:101BC0001A70401CC0B2F7E70B1800221A70401EB2
:101BD000C0B20C180A23B5FBF3F203FB125292B207
:101BE000303222700A22B5FBF2F292B295B202B9FB
:101BF00002E0401EC0B2ECE701B0704781B0CDF802
:101C000000E0016808460449FFF736FD0020DDF8D2
:101C100000E001B0704700BF1C26000002680649C2
:101C20000A60011D0A6805490A6000F208010A6895
:101C300003490A60704700BFF8000020FC00002044
:101C4000F400002081B0CDF800E0016808460449A6
:101C5000FFF712FD0020DDF800E001B0704700BF83
:101C60001C26000081B0CDF800E0094902B440F222
:101C7000000340F2000240F20001FFF7D5FC01B082
:101C8000044A05490A600020DDF800E001B0704711
:101C9000B025000045140000F000002082B0CDF80F
:101CA00000E001AA1070521C1170FFF70BFD01AB90
:101CB000054A127819460123D0B20222FFF734FDFB
:101CC000DDF800E002B07047CD00002081B0CDF813
:101CD00000E00E46002183B2002805DA01214042CF
:101CE00080B280B28FB201E098B28FB23146FFF776
:101CF0005DFF06213446B8B2002908D963184A1E90
:101D000092B2A21812781A70491E89B2F4E7202202
:101D1000227070B1002081B2204642181278202A29
:101D200002D1491C89B2F8E74A1E92B283182D22CB
:101D30001A70DDF800E001B07047FFFF86B0CDF803
:101D400000E00290039101AA05928C20FFF710FD9C
:101D5000059A107001AA521C05928D20FFF708FD0C
:101D6000059A10700DF1060205928E20FFF700FD16
:101D7000059A10700DF10602521C05928F20FFF794
:101D8000F7FC059A107001AC621C1078C0B2030217
:101D90009BB222781343029A13800DF10604621C51
:101DA0001278D0B203029BB222781343039A1380B5
:101DB000DDF800E006B0704781B0CDF800E00446E1
:101DC000054B1A700846FFF729FF2046FFF7F4FC81
:101DD000DDF800E001B07047CD00002081B08CB28A
:101DE00081B2002008E047F217560AE040F6E77695
:101DF00007E040F2004604E0002CF4D0012CF5D0BE
:101E0000F7E709B93601FFE702FB06F4A50A294600
:101E100003FB06F4A40A22461DB19002B0FBF1F0C8
:101E2000FFE7441C64082046002C0AD3402808D849
:101E300040F2F214ADF8004040F2BE14ADF802409A
:101E400052E0802808D840F21424ADF8004040F257
:101E5000D124ADF8024047E0C02808D840F23F2422
:101E6000ADF8004040F27B34ADF802403CE0B0F504
:101E7000807F08D840F27024ADF8004040F2FE3474
:101E8000ADF8024030E0B0F59C7F08D840F26F1406
:101E9000ADF8004040F2FC14ADF8024024E0B0F58B
:101EA000CD7F08D840F2D204ADF8004040F2FB04E8
:101EB000ADF8024018E040F29A24A04208D840F25F
:101EC0001804ADF8004040F21204ADF802400BE0F7
:101ED00040F29A24A04207D940F20004ADF8004035
:101EE00040F20004ADF80240BDF8004001FB04F5EB
:101EF000BDF8024054432C1B2046002C01D2002088
:101F0000FFE700F50054A40BA0B201B07047FFFF3B
:101F100041F6FF27C0F2B7077F1EFDD100BF00BF0B
:101F200000BF00BF00BF704781B0CDF800E011E0F6
:101F30000846FFF797FE16E00846FFF7D9FB12E0C8
:101F40000846FFF743FC0EE00846FFF75BFC0AE09B
:101F5000012008E00028EBD00128EDD02028EFD0A8
:101F60003028F1D0F4E7DDF800E001B07047FFFF62
:101F70004DF2BF47C0F201077F1EFDD100BF00BF79
:101F800000BF00BF00BF704781B0CDF800E05FFA2E
:101F900081F95FFA82FA0FE05FFA8AF15FFA89F05D
:101FA000FFF728FD0DE05FFA8AF15FFA89F0FFF78D
:101FB00045FC06E0012004E00028EDD00128F2D025
:101FC000F8E7DDF800E001B07047FFFF81B0CDF821
:101FD00000E08B4609E05846FFF710FE0AE058463D
:101FE000FFF730FE06E0012004E00028F3D00128CE
:101FF000F5D0F8E7DDF800E001B07047A0860100F9
:1020000044F67F77C0F212077F1EFDD100BF00BFEC
:1020100000BF00BF00BF704783B0CDF800E00246AC
:1020200010460D228DF808200A228DF809201FE0A5
:10203000FFF78EFB23E002782AB10190FFF788FBBF
:102040000198401CF7E71AE002782AB10190FFF7E7
:102050007FFB0198401CF7E702AA1046FFF778FBC8
:102060000DF109021046FFF773FB08E0062007E0B8
:102070000029DDD00129DED00229E5D0F6E70020D5
:10208000DDF800E003B0704781B04FF000094FF079
:10209000000CBDEB0A0F04DCBDEB0B0F01DBD446DB
:1020A000EA464BF8049BBBEB0A0FFAD1BCEB0A0FD4
:1020B00005DDE246D9F800B00BF1040BF1E701B001
:1020C0007047FFFF81B01CF8019B0BF8019BBBEB35
:1020D0000A0FF8D101B0704781B01548006840F090
:1020E0000101134801601349134801601048016859
:1020F000124801400E4801600D4801686FF48020CD
:1021000001400B4801600C4801686FF4FE0001407B
:1021100009480160064801686FF0A050014004487A
:1021200001604FF000010648016001B0704700BF38
:10213000001002400000FFF004100240FFFFF6FE16
:102140002C10024081B0CDF800E0012207210020D0
:10215000FFF71AFF074801460020FFF737FF42F25A
:1021600080510120FFF7E0FEFFF74AFFDDF800E0B5
:1021700001B07047FC1F000081B0CDF800E0364987
:102180003648FFF7DBFD34480188344800888BB2BD
:1021900082B240F2020140F20000FFF71FFE304918
:1021A0000880FFF7B5FE2F4801882D480088411AA6
:1021B00089B22D480078814240F249802848018840
:1021C00028480088411A89B22748007881423ED9C0
:1021D00026480121FFF720FF214800882449FFF706
:1021E00075FD01212248FFF717FF22480221FFF762
:1021F00013FF21480121FFF70FFF174801881748F7
:102200000088401A1A4900B2FFF760FD0121184802
:10221000FFF702FF19480221FFF7FEFE18480121CF
:10222000FFF7FAFE0C4800881149FFF74FFD012126
:102230000F48FFF7F1FE13480221FFF7EDFE1248A9
:102240000221FFF7E9FE0648018806480180DDF813
:1022500000E001B0704700BFDC000020CE0000208D
:10226000DE000020580000205A0000205B00002003
:10227000E00000206D000020760000208800002093
:1022800091000020A3000020AC00002081B0CDF818
:1022900000E0492212491348FFF78EFD802040F0EC
:1022A00000000321FFF7FAFCFFF762FE802040F0F8
:1022B00001000221FFF7F2FCFFF75AFE0A48022153
:1022C000FFF7AAFE09480221FFF7A6FE08480221EF
:1022D000FFF7A2FEFFF74CFEDDF800E001B070470B
:1022E00070270000F42600000000002021000020DC
:1022F0003700002081B002490248016001B07047F8
:10230000401901000401002081B0FEE701B07047D0
:1023100081B0CDF800E0464A464B474C47494BF662
:102320008030814206D94648006840F002014448A6
:10233000016011E045F6C050814206D9404800686E
:1023400040F001013E48016006E03D4801686FF041
:10235000070001403A480160FFF7BEFE39480360BC
:1023600039480460394802EA00013948016002F046
:10237000010040B119463648006800F0020000280C
:1023800000D1F8E700E0194602F4803040B10B4676
:102390002F48006800F40030002800D1F8E700E082
:1023A0000B4602F0805068B12948006840F0805127
:1023B000274801602648006800F00050002800D13E
:1023C000F8E7FFE702F0806078B12148006840F04C
:1023D00080611F48016011461A461D48006800F0E0
:1023E0000060002800D1F8E701E011461A4601F02C
:1023F000807070B11648006840F080711448016028
:1024000011461348006800F0007000B9F9E70A4669
:10241000FFE70C48006800F00C01900000F00C0091
:10242000814200D0F5E7DDF800E001B0704700BF61
:102430008100010502841D004406010040190100CD
:1024400000200240041002402C100240FFFF0F0049
:1024500000100240FFF75CFF00F0E0F9FFF74AFFD1
:1024600000F08EF9FFF76EFEFFF710FFFFF784FE16
:10247000FCE7FEE72D2D2D2D2D2D2D2D2D2D2D2D78
:102480002D2D2D2D2D2D2D2D2D2D2D2D2D2D2D2D7C
:102490002D2D2D2D002020202020202020202049FF
:1024A0006C6C756D696E616E6365002D2D2D2D2D23
:1024B0002D2D2D2D2D2D2D2D2D2D2D2D2D2D2D2D4C
:1024C0002D2D2D2D2D2D2D2D2D2D2D0000003220CB
:1024D00046756C6C2020537065637472756D203A7C
:1024E00000205B206C7578205D002056697369625E
:1024F0006C65202056616C7565203A00205B206C6D
:102500007578205D0020496E6672617265642056A0
:10251000616C7565203A00205B206C7578205D0049
:102520002D2D2D2D2D2D2D2D2D2D2D2D2D2D2D2DDB
:102530002D2D2D2D2D2D2D2D2D2D2D2D2D2D2D2DCB
:1025400000FFFFFF090000000A000000FFFFFFFF7F
:10255000000000000000000000000000000000007B
:10256000000000000000000000000000000000006B
:102570000000000000000000180800001800000023
:10258000000000000000000000000000000000004B
:10259000000000000000000000000000000000003B
:1025A0000000000000000000000000000400000027
:1025B0003800000039000000FFFFFFFF00000000AE
:1025C000000000000000000000000000000000000B
:1025D00000000000000000000000000000000000FB
:1025E00000000000180800001800000000000000B3
:1025F00000000000000000000000000000000000DB
:1026000000000000000000000000000000000000CA
:102610000000000000000000300014081600000058
:1026200017000000FFFFFFFF000000000000000097
:10263000000000000000000000000000000000009A
:10264000000000000000000000000000000000008A
:10265000280800002808000000000000000000001A
:10266000000000000000000000000000000000006A
:10267000000000000000000000000000000000005A
:1026800000000000020000003500000036000000DD
:10269000FFFFFFFF0000000000000000000000003E
:1026A000000000000000000000000000000000002A
:1026B00000000000000000000000000018080000FA
:1026C00018000000000000000000000000000000F2
:1026D00000000000000000000000000000000000FA
:1026E00000000000000000000000000000000000EA
:1026F00008000008890200007D020000710200004D
:1027000095020000B9020000AD020000A102000025
:1027100065020000350200002902000041020000AD
:1027200059020000FFFFFFFFFFFFFFFFFFFFFFFF5A
:10273000FFFFFFFFFFFFFFFFFFFFFFFFFFFFFFFFA9
:10274000FFFFFFFFFFFFFFFFFFFFFFFFFFFFFFFF99
:10275000FFFFFFFF00000000010203040102030469
:10276000060708090000000000000000000000004B
:102770009516000061150000B11000000204060863
:1027800000B5DFF824B0DFF824A0DFF824C0FFF79D
:1027900099FCDFF820B0DFF820A0DFF820C0FFF7B9
:1027A00091FC00BD704700BF00000020CD0000205C
:1027B00074240000D0000020DC000020642700000A
:1027C000FFFFFFFFFFFFFFFFFFFFFFFFFFFFFFFF19
:1027D000FFFFFFFFFFFFFFFFFFFFFFFFFFFFFFFF09
:1027E000FFFFFFFFFFFFFFFFFFFFFFFFFFFFFFFFF9
:1027F000FFFFFFFFFFFFFFFFFFFFFFFFFFFFFFFFE9
:10280000FFFFFFFFFFFFFFFFFFFFFFFFFFFFFFFFD8
:10281000FFFFFFFFFFFFFFFFFFFFFFFF00B5DFF838
:1028200010B0DFF810A0FFF72FFC00BD704700BF0D
:102830000000002030010020FFFFFFFFFFFFFFFF2F
:00000001FF
